{
  "contractName": "TokenFarm",
  "abi": [
    {
      "inputs": [
        {
          "internalType": "contract AgovToken",
          "name": "_agovToken",
          "type": "address"
        }
      ],
      "stateMutability": "nonpayable",
      "type": "constructor"
    },
    {
      "inputs": [],
      "name": "acomToken",
      "outputs": [
        {
          "internalType": "contract IERC20",
          "name": "",
          "type": "address"
        }
      ],
      "stateMutability": "view",
      "type": "function",
      "constant": true
    },
    {
      "inputs": [],
      "name": "agovToken",
      "outputs": [
        {
          "internalType": "contract AgovToken",
          "name": "",
          "type": "address"
        }
      ],
      "stateMutability": "view",
      "type": "function",
      "constant": true
    },
    {
      "inputs": [],
      "name": "canWithdraw",
      "outputs": [
        {
          "internalType": "bool",
          "name": "",
          "type": "bool"
        }
      ],
      "stateMutability": "view",
      "type": "function",
      "constant": true
    },
    {
      "inputs": [
        {
          "internalType": "address",
          "name": "",
          "type": "address"
        }
      ],
      "name": "hasStaked",
      "outputs": [
        {
          "internalType": "bool",
          "name": "",
          "type": "bool"
        }
      ],
      "stateMutability": "view",
      "type": "function",
      "constant": true
    },
    {
      "inputs": [
        {
          "internalType": "address",
          "name": "",
          "type": "address"
        }
      ],
      "name": "isStaking",
      "outputs": [
        {
          "internalType": "bool",
          "name": "",
          "type": "bool"
        }
      ],
      "stateMutability": "view",
      "type": "function",
      "constant": true
    },
    {
      "inputs": [],
      "name": "name",
      "outputs": [
        {
          "internalType": "string",
          "name": "",
          "type": "string"
        }
      ],
      "stateMutability": "view",
      "type": "function",
      "constant": true
    },
    {
      "inputs": [],
      "name": "owner",
      "outputs": [
        {
          "internalType": "address",
          "name": "",
          "type": "address"
        }
      ],
      "stateMutability": "view",
      "type": "function",
      "constant": true
    },
    {
      "inputs": [
        {
          "internalType": "uint256",
          "name": "",
          "type": "uint256"
        }
      ],
      "name": "stakers",
      "outputs": [
        {
          "internalType": "address",
          "name": "",
          "type": "address"
        }
      ],
      "stateMutability": "view",
      "type": "function",
      "constant": true
    },
    {
      "inputs": [
        {
          "internalType": "address",
          "name": "",
          "type": "address"
        }
      ],
      "name": "stakingBalance",
      "outputs": [
        {
          "internalType": "uint256",
          "name": "",
          "type": "uint256"
        }
      ],
      "stateMutability": "view",
      "type": "function",
      "constant": true
    },
    {
      "inputs": [
        {
          "internalType": "uint256",
          "name": "_amount",
          "type": "uint256"
        }
      ],
      "name": "stakeTokens",
      "outputs": [],
      "stateMutability": "nonpayable",
      "type": "function"
    },
    {
      "inputs": [],
      "name": "unstakeTokens",
      "outputs": [],
      "stateMutability": "nonpayable",
      "type": "function"
    },
    {
      "inputs": [],
      "name": "withdrawOff",
      "outputs": [],
      "stateMutability": "nonpayable",
      "type": "function"
    },
    {
      "inputs": [],
      "name": "withdrawOn",
      "outputs": [],
      "stateMutability": "nonpayable",
      "type": "function"
    },
    {
      "inputs": [],
      "name": "issueTokens",
      "outputs": [],
      "stateMutability": "nonpayable",
      "type": "function"
    }
  ],
  "bytecode": "0x60806040526040518060400160405280601d81526020017f41434f4d205969656c64204661726d2056657273696f6e20312e302e300000008152506000908051906020019061004f929190610187565b506000600160006101000a81548160ff02191690831515021790555034801561007757600080fd5b506040516112173803806112178339818101604052602081101561009a57600080fd5b810190808051906020019092919050505080600260006101000a81548173ffffffffffffffffffffffffffffffffffffffff021916908373ffffffffffffffffffffffffffffffffffffffff16021790555073f67bc5ad4cc64f6acf1825a0bb3a5f3b999ed42c600360006101000a81548173ffffffffffffffffffffffffffffffffffffffff021916908373ffffffffffffffffffffffffffffffffffffffff160217905550336001806101000a81548173ffffffffffffffffffffffffffffffffffffffff021916908373ffffffffffffffffffffffffffffffffffffffff16021790555050610224565b828054600181600116156101000203166002900490600052602060002090601f016020900481019282601f106101c857805160ff19168380011785556101f6565b828001600101855582156101f6579182015b828111156101f55782518255916020019190600101906101da565b5b5090506102039190610207565b5090565b5b80821115610220576000816000905550600101610208565b5090565b610fe4806102336000396000f3fe608060405234801561001057600080fd5b50600436106100ea5760003560e01c80638da5cb5b1161008c578063c93c8f3411610066578063c93c8f34146102f8578063e6bbfc7114610352578063fc081b1614610386578063fd5e6dd114610390576100ea565b80638da5cb5b1461029a578063a5ce413b146102ce578063b51459fe146102d8576100ea565b806345bc78ab116100c857806345bc78ab146101b057806360ab5852146102085780636f49712b146102125780637547c7a31461026c576100ea565b806304d420ea146100ef57806306fdde03146100f95780632b7909b81461017c575b600080fd5b6100f76103e8565b005b6101016104a8565b6040518080602001828103825283818151815260200191508051906020019080838360005b83811015610141578082015181840152602081019050610126565b50505050905090810190601f16801561016e5780820380516001836020036101000a031916815260200191505b509250505060405180910390f35b610184610546565b604051808273ffffffffffffffffffffffffffffffffffffffff16815260200191505060405180910390f35b6101f2600480360360208110156101c657600080fd5b81019080803573ffffffffffffffffffffffffffffffffffffffff16906020019092919050505061056c565b6040518082815260200191505060405180910390f35b610210610584565b005b6102546004803603602081101561022857600080fd5b81019080803573ffffffffffffffffffffffffffffffffffffffff1690602001909291905050506107c7565b60405180821515815260200191505060405180910390f35b6102986004803603602081101561028257600080fd5b81019080803590602001909291905050506107e7565b005b6102a2610b1a565b604051808273ffffffffffffffffffffffffffffffffffffffff16815260200191505060405180910390f35b6102d6610b3e565b005b6102e0610db6565b60405180821515815260200191505060405180910390f35b61033a6004803603602081101561030e57600080fd5b81019080803573ffffffffffffffffffffffffffffffffffffffff169060200190929190505050610dc9565b60405180821515815260200191505060405180910390f35b61035a610de9565b604051808273ffffffffffffffffffffffffffffffffffffffff16815260200191505060405180910390f35b61038e610e0f565b005b6103bc600480360360208110156103a657600080fd5b8101908080359060200190929190505050610ed0565b604051808273ffffffffffffffffffffffffffffffffffffffff16815260200191505060405180910390f35b60018054906101000a900473ffffffffffffffffffffffffffffffffffffffff1673ffffffffffffffffffffffffffffffffffffffff163373ffffffffffffffffffffffffffffffffffffffff161461048c576040517f08c379a000000000000000000000000000000000000000000000000000000000815260040180806020018281038252602e815260200180610f0d602e913960400191505060405180910390fd5b60018060006101000a81548160ff021916908315150217905550565b60008054600181600116156101000203166002900480601f01602080910402602001604051908101604052809291908181526020018280546001816001161561010002031660029004801561053e5780601f106105135761010080835404028352916020019161053e565b820191906000526020600020905b81548152906001019060200180831161052157829003601f168201915b505050505081565b600260009054906101000a900473ffffffffffffffffffffffffffffffffffffffff1681565b60056020528060005260406000206000915090505481565b60018054906101000a900473ffffffffffffffffffffffffffffffffffffffff1673ffffffffffffffffffffffffffffffffffffffff163373ffffffffffffffffffffffffffffffffffffffff1614610628576040517f08c379a000000000000000000000000000000000000000000000000000000000815260040180806020018281038252602e815260200180610f0d602e913960400191505060405180910390fd5b60005b6004805490508110156107c45760006004828154811061064757fe5b9060005260206000200160009054906101000a900473ffffffffffffffffffffffffffffffffffffffff1690506000600560008373ffffffffffffffffffffffffffffffffffffffff1673ffffffffffffffffffffffffffffffffffffffff16815260200190815260200160002054905060008111156107b557600069d3c21bcecceda1000000684a42ab04a79eed80008302816106e157fe5b049050600260009054906101000a900473ffffffffffffffffffffffffffffffffffffffff1673ffffffffffffffffffffffffffffffffffffffff1663a9059cbb84836040518363ffffffff1660e01b8152600401808373ffffffffffffffffffffffffffffffffffffffff16815260200182815260200192505050602060405180830381600087803b15801561077757600080fd5b505af115801561078b573d6000803e3d6000fd5b505050506040513d60208110156107a157600080fd5b810190808051906020019092919050505050505b5050808060010191505061062b565b50565b60076020528060005260406000206000915054906101000a900460ff1681565b60008111610840576040517f08c379a0000000000000000000000000000000000000000000000000000000008152600401808060200182810382526024815260200180610f8b6024913960400191505060405180910390fd5b600360009054906101000a900473ffffffffffffffffffffffffffffffffffffffff1673ffffffffffffffffffffffffffffffffffffffff166323b872dd3330846040518463ffffffff1660e01b8152600401808473ffffffffffffffffffffffffffffffffffffffff1681526020018373ffffffffffffffffffffffffffffffffffffffff1681526020018281526020019350505050602060405180830381600087803b1580156108f157600080fd5b505af1158015610905573d6000803e3d6000fd5b505050506040513d602081101561091b57600080fd5b81019080805190602001909291905050505080600560003373ffffffffffffffffffffffffffffffffffffffff1673ffffffffffffffffffffffffffffffffffffffff1681526020019081526020016000205401600560003373ffffffffffffffffffffffffffffffffffffffff1673ffffffffffffffffffffffffffffffffffffffff16815260200190815260200160002081905550600660003373ffffffffffffffffffffffffffffffffffffffff1673ffffffffffffffffffffffffffffffffffffffff16815260200190815260200160002060009054906101000a900460ff16610a67576004339080600181540180825580915050600190039060005260206000200160009091909190916101000a81548173ffffffffffffffffffffffffffffffffffffffff021916908373ffffffffffffffffffffffffffffffffffffffff1602179055505b6001600660003373ffffffffffffffffffffffffffffffffffffffff1673ffffffffffffffffffffffffffffffffffffffff16815260200190815260200160002060006101000a81548160ff0219169083151502179055506001600760003373ffffffffffffffffffffffffffffffffffffffff1673ffffffffffffffffffffffffffffffffffffffff16815260200190815260200160002060006101000a81548160ff02191690831515021790555050565b60018054906101000a900473ffffffffffffffffffffffffffffffffffffffff1681565b6000600560003373ffffffffffffffffffffffffffffffffffffffff1673ffffffffffffffffffffffffffffffffffffffff16815260200190815260200160002054905060008111610bdb576040517f08c379a0000000000000000000000000000000000000000000000000000000008152600401808060200182810382526023815260200180610f3b6023913960400191505060405180910390fd5b60011515600160009054906101000a900460ff16151514610c47576040517f08c379a000000000000000000000000000000000000000000000000000000000815260040180806020018281038252602d815260200180610f5e602d913960400191505060405180910390fd5b600360009054906101000a900473ffffffffffffffffffffffffffffffffffffffff1673ffffffffffffffffffffffffffffffffffffffff1663a9059cbb33836040518363ffffffff1660e01b8152600401808373ffffffffffffffffffffffffffffffffffffffff16815260200182815260200192505050602060405180830381600087803b158015610cda57600080fd5b505af1158015610cee573d6000803e3d6000fd5b505050506040513d6020811015610d0457600080fd5b8101908080519060200190929190505050506000600560003373ffffffffffffffffffffffffffffffffffffffff1673ffffffffffffffffffffffffffffffffffffffff168152602001908152602001600020819055506000600760003373ffffffffffffffffffffffffffffffffffffffff1673ffffffffffffffffffffffffffffffffffffffff16815260200190815260200160002060006101000a81548160ff02191690831515021790555050565b600160009054906101000a900460ff1681565b60066020528060005260406000206000915054906101000a900460ff1681565b600360009054906101000a900473ffffffffffffffffffffffffffffffffffffffff1681565b60018054906101000a900473ffffffffffffffffffffffffffffffffffffffff1673ffffffffffffffffffffffffffffffffffffffff163373ffffffffffffffffffffffffffffffffffffffff1614610eb3576040517f08c379a000000000000000000000000000000000000000000000000000000000815260040180806020018281038252602e815260200180610f0d602e913960400191505060405180910390fd5b6000600160006101000a81548160ff021916908315150217905550565b60048181548110610edd57fe5b906000526020600020016000915054906101000a900473ffffffffffffffffffffffffffffffffffffffff168156fe4552524f523a20496e73756666696369656e74204f776e65722050726976696c65676573204465746563746564214552524f523a204e6f2041434f4d20496e766573746d656e74204465746563746564214552524f523a205769746864726177616c7320417265204e6f742043757272656e746c7920456e61626c6564214552524f523a204d75737420496e76657374204d6f7265205468616e20302041434f4d21a2646970667358221220d81c5f6ed686627dab0299c1a887eeed7701004ab053c1a32ad3aeced29ef1c564736f6c63430007000033",
  "source": "// SPDX-License-Identifier: MIT\r\npragma solidity >=0.4.22 <0.8.0;\r\n\r\nimport \"@openzeppelin/contracts/token/ERC20/IERC20.sol\";\r\nimport \"./AgovToken.sol\";\r\n\r\n// 0x643fd19acbb31e5247ef652e15368f744e2a265a ETH mainnet ACOM Address ||  0xf67BC5ad4CC64F6acf1825a0bb3A5F3B999Ed42C ropsten mock ACOM Address || 0x50ECbDE759Eb6f23FFefd65CF7Ea8F305bbd0279 local testnetmock ACOM Address\r\n\r\ncontract TokenFarm {\r\n\r\n  string public name = \"ACOM Yield Farm Version 1.0.0\";\r\n  bool public canWithdraw = false;\r\n  address public owner;\r\n  AgovToken public agovToken;\r\n  IERC20 public acomToken;\r\n\r\n  address[] public stakers;\r\n\r\n  mapping(address => uint) public stakingBalance;\r\n  mapping(address => bool) public hasStaked;\r\n  mapping(address => bool) public isStaking;\r\n\r\n  constructor(AgovToken _agovToken) {\r\n    agovToken = _agovToken;\r\n    acomToken = IERC20(0xf67BC5ad4CC64F6acf1825a0bb3A5F3B999Ed42C);\r\n    owner = msg.sender;\r\n  }\r\n\r\n  function stakeTokens(uint _amount) public {\r\n    require(_amount > 0, \"ERROR: Must Invest More Than 0 ACOM!\");\r\n    acomToken.transferFrom(msg.sender, address(this), _amount);\r\n    stakingBalance[msg.sender] = stakingBalance[msg.sender] + _amount;\r\n    if (!hasStaked[msg.sender]) {\r\n      stakers.push(msg.sender);\r\n    }\r\n    hasStaked[msg.sender] = true;\r\n    isStaking[msg.sender] = true;\r\n  }\r\n\r\n  function unstakeTokens() public {\r\n    uint balance = stakingBalance[msg.sender];\r\n    require(balance > 0, \"ERROR: No ACOM Investment Detected!\");\r\n    require(canWithdraw == true, \"ERROR: Withdrawals Are Not Currently Enabled!\");\r\n    acomToken.transfer(msg.sender, balance);\r\n    stakingBalance[msg.sender] = 0;\r\n    isStaking[msg.sender] = false;\r\n  }\r\n\r\n  function withdrawOff() public {\r\n    require(msg.sender == owner, \"ERROR: Insufficient Owner Privileges Detected!\");\r\n    canWithdraw = false;\r\n  }\r\n\r\n  function withdrawOn() public {\r\n    require(msg.sender == owner, \"ERROR: Insufficient Owner Privileges Detected!\");\r\n    canWithdraw = true;\r\n  }\r\n\r\n  function issueTokens() public {\r\n    require(msg.sender == owner, \"ERROR: Insufficient Owner Privileges Detected!\");\r\n    for (uint i=0; i<stakers.length; i++) {\r\n      address recipient = stakers[i];\r\n      uint balance = stakingBalance[recipient];\r\n      if (balance > 0){\r\n        uint dailyPay = (balance * 1369863000000000000000) / 1000000000000000000000000;\r\n        agovToken.transfer(recipient, dailyPay);\r\n      }\r\n    }\r\n  }\r\n}\r\n",
  "sourcePath": "c:\\Users\\KLYE\\ACOM-Yield-Farm\\src\\contracts\\TokenFarm.sol",
  "compiler": {
    "name": "solc",
    "version": "0.7.0+commit.9e61f92b.Emscripten.clang"
  },
  "schemaVersion": "3.0.23",
  "updatedAt": "2021-01-16T19:53:58.108Z",
  "networkType": "ethereum",
  "devdoc": {
    "kind": "dev",
    "methods": {},
    "version": 1
  },
  "userdoc": {
    "kind": "user",
    "methods": {},
    "version": 1
  }
}